:100000000C942A000C9434000C9434000C943400AA
:100010000C9434000C9434000C9434000C94340090
:100020000C9434000C9434000C9434000C94340080
:100030000C9434000C9434000C9434000C94340070
:100040000C9434000C9434000C9434000C94340060
:100050000C94340011241FBECFE5D8E0DEBFCDBF25
:100060000E9436000C946B000C9400008CEF8ABB4D
:100070008FE087BB50E090E080E029B3422F4170D1
:1000800020FF0CC091110AC090E003968F70907809
:10009000992324F40197806F9F6F0196322F32705D
:1000A00021FF0CC051110AC090E00D968F7090781E
:1000B000992324F40197806F9F6F019688BB2FE3EB
:1000C0005DE093E0215050409040E1F700C0000017
:0A00D000942F532FD2CFF894FFCFE6
:00000001FF
