:100000000C942A000C9441000C943F000C943F0087
:100010000C943F000C943F000C943F000C943F0064
:100020000C943F000C943F000C943F000C943F0054
:100030000C943F000C943F000C943F000C943F0044
:100040000C943F000C943F000C943F000C943F0034
:100050000C943F0011241FBECFE5D8E0DEBFCDBF1A
:1000600010E0A0E6B0E0E0E2F1E002C005900D9201
:10007000AA36B107D9F70E946C000C948E000C943C
:1000800000001F920F920FB60F9211248F93809150
:1000900060008095809360008F910F900FBE0F904D
:1000A0001F901895809161008BBB20E030E090E8B4
:1000B000F901EE59FF4F808188BB86EA8A95F1F7F6
:1000C00000C08BB3869509F4892F8BBB2F5F3F4F00
:1000D0002830310569F708958FEF8ABB87BB80E42C
:1000E0008BBF85B7837085BF789410E8C2E3D0E0FA
:1000F0000E9452002197E1F78091600080FFF6CFC7
:100100008FE19EE40197F1F700C00000809161004B
:10011000869509F4812F80936100E8CFF894FFCF92
:0A0120000180EFE7EBEFEF83FFFF34
:00000001FF
