:100000000C942A000C943F000C943F000C943F0089
:100010000C943F000C943F000C943F000C943F0064
:100020000C943F000C943F000C943F000C943F0054
:100030000C943F000C943F000C943F000C943F0044
:100040000C943F000C943F000C943F000C943F0034
:100050000C943F0011241FBECFE5D8E0DEBFCDBF1A
:1000600010E0A0E6B0E0EAE0F1E002C005900D92F9
:10007000A238B107D9F70E947D000C9483000C943C
:100080000000209160002BBB20E030E0880F991F1A
:10009000880F991F880F991FAC014F595F4F80E857
:1000A000FA01E20FF31F908198BB96EA9A95F1F757
:1000B00000C09BB3969509F4982F9BBB2F5F3F4FD1
:1000C0002830310569F708950F931F93CF93DF937D
:1000D00000E010E00AC0C8010E9441002197D9F752
:1000E0000F5F1F4F0330110519F0C8ECD0E0F3CFBC
:1000F000DF91CF911F910F9108958FEF8ABB87BB3E
:0A0100000E946400FDCFF894FFCFC9
:10010A0080EFE7EBEFEF83FFFFFFFFDBBB03FBFBB8
:10011A00FFFFFFC1F7F7D7E7F7FFDFDFC0DDDBFF40
:02012A00FF00D4
:00000001FF
