:100000000C942A000C943F000C943F000C943F0089
:100010000C943F000C943F000C943F000C943F0064
:100020000C943F000C943F000C943F000C943F0054
:100030000C943F000C943F000C943F000C943F0044
:100040000C943F000C943F000C943F000C943F0034
:100050000C943F0011241FBECFE5D8E0DEBFCDBF1A
:1000600010E0A0E6B0E0ECEBFEE002C005900D92DF
:10007000A436B107D9F70E94F6020C945C070C94E1
:100080000000672B09F09FC0009711F4D8980895DD
:100090008130910511F4D99808958230910511F4B9
:1000A000DA9808958330910511F4DB98089584302F
:1000B000910511F4DC9808958530910511F4DD98CF
:1000C00008958630910511F4DE98089587309105E2
:1000D00011F4DF9808958A30910511F4C0980895BD
:1000E0008B30910511F4C19808958C30910511F46D
:1000F000C29808958D30910511F4C39808958E30FB
:10010000910511F4C49808958F30910511F4C598A4
:1001100008958031910511F4C698089581319105B3
:1001200011F4C79808958431910511F4A8980895A1
:100130008531910511F4A99808958631910511F43E
:10014000AA9808958731910511F4AB9808958831E4
:10015000910511F4AC9808958931910511F4AD9889
:1001600008958A31910511F4AE9808958B31910567
:1001700011F4AF9808958E31910511F49098089577
:100180008F31910511F4919808958032910511F401
:10019000929808958132910511F4939808958232CE
:1001A000910511F4949808958332910511F495986E
:1001B00008958432910511F496980895859709F071
:1001C0009FC097980895009711F4D89A08958130A8
:1001D000910511F4D99A08958230910511F4DA9AB3
:1001E00008958330910511F4DB9A089584309105C8
:1001F00011F4DC9A08958530910511F4DD9A089583
:100200008630910511F4DE9A08958730910511F436
:10021000DF9A08958A30910511F4C09A08958B30C1
:10022000910511F4C19A08958C30910511F4C29A88
:1002300008958D30910511F4C39A08958E3091057B
:1002400011F4C49A08958F30910511F4C59A089558
:100250008031910511F4C69A08958131910511F408
:10026000C79A08958431910511F4A89A08958531AB
:10027000910511F4A99A08958631910511F4AA9A6D
:1002800008958731910511F4AB9A0895883191054D
:1002900011F4AC9A08958931910511F4AD9A08953D
:1002A0008A31910511F4AE9A08958B31910511F4BC
:1002B000AF9A08958E31910511F4909A08958F3177
:1002C000910511F4919A08958032910511F4929A52
:1002D00008958132910511F4939A0895823291051F
:1002E00011F4949A08958332910511F4959A089522
:1002F0008432910511F4969A0895859709F4979A96
:100300000895CF93C82F80FF07C061E070E082E2BC
:1003100090E00E94410006C060E070E082E290E060
:100320000E944100C1FF07C061E070E083E290E0FD
:100330000E94410006C060E070E083E290E00E940D
:100340004100C2FF07C061E070E084E290E00E94DB
:10035000410006C060E070E084E290E00E9441004D
:10036000C3FF07C061E070E085E290E00E944100B9
:1003700006C060E070E085E290E00E944100CF910D
:100380000895CF93C82F60E070E08AE190E00E946A
:1003900041008C2F0E94810161E070E08BE190E0D0
:1003A0000E94410089EF90E00197F1F700C0000042
:1003B00060E070E08BE190E00E94410089EF90E006
:1003C0000197F1F700C00000CF910895CF93C62F99
:1003D000813059F480E8860F82958F700E94C101A8
:1003E0008C2F8F700E94C1010CC0823051F480ECC0
:1003F000860F82958F700E94C1018C2F8F700E9492
:10040000C101CF91089580E00E94810187E893E1C6
:100410000197F1F700C0000083E00E94C10181EE66
:1004200094E00197F1F700C0000083E00E94C10151
:100430008DEB9AE00197F1F700C0000083E00E9485
:10044000C10182E00E94C10182E00E94C10188E0F6
:100450000E94C10180E00E94C1018CE00E94C101A4
:1004600080E00E94C10186E00E94C1010895CF93FF
:10047000C82F61E070E08AE190E00E9441008C2F7B
:1004800082958F700E94810161E070E08BE190E0C5
:100490000E94410089EF90E00197F1F700C0000051
:1004A00060E070E08BE190E00E94410089EF90E015
:1004B0000197F1F700C000008C2F8F700E9481011E
:1004C00061E070E08BE190E00E94410089EF90E0F4
:1004D0000197F1F700C0000060E070E08BE190E070
:1004E0000E94410089EF90E00197F1F700C0000001
:1004F000CF910895CF93DF93EC018881882331F069
:1005000021960E94370289918111FBCFDF91CF9113
:1005100008953E9A86B1876886B9089597B1907F0D
:100520008F70892B87B9369A3699FECF84B195B1F1
:1005300008958F929F92AF92BF92EF92FF920F9386
:100540001F93CF93DF93CDB7DEB760970FB6F894C4
:10055000DEBF0FBECDBF4B015C010E9419037F932C
:100560006F930F2EF0E6EF2EF0E0FF2EF02DFF92AE
:10057000EF928E010F5F1F4F1F930F930E94720423
:10058000C8010E947A028EE20E94370220E030E029
:1005900048EC52E4C501B4010E94B5030E9419035E
:1005A000CB0164E670E00E944A049F938F93FF9210
:1005B000EF921F930F930E947204C8010E947A0267
:1005C0000FB6F894DEBF0FBECDBF60960FB6F8949D
:1005D000DEBF0FBECDBFDF91CF911F910F91FF9076
:1005E000EF90BF90AF909F908F9008958FEF81BB59
:1005F00084BB0E9489020E94030280E00E948E0256
:10060000EC0161E081E00E94E601BE0180E090E043
:100610000E944F0320E030E040EA50E40E94B5031E
:1006200020E030E040E85AE30E94B5030E949902BE
:10063000E4CF0E9420036894B1110C94AF03089595
:100640000E94940388F09F5798F0B92F9927B751CB
:10065000B0F0E1F0660F771F881F991F1AF0BA9566
:10066000C9F714C0B13091F00E94AE03B1E0089513
:100670000C94AE03672F782F8827B85F39F0B93F05
:10068000CCF3869577956795B395D9F73EF4909519
:100690008095709561957F4F8F4F9F4F0895E89497
:1006A00009C097FB3EF490958095709561957F4FBA
:1006B0008F4F9F4F9923A9F0F92F96E9BB27939568
:1006C000F695879577956795B795F111F8CFFAF478
:1006D000BB0F11F460FF1BC06F5F7F4F8F4F9F4FA9
:1006E00016C0882311F096E911C0772321F09EE807
:1006F000872F762F05C0662371F096E8862F70E06D
:1007000060E02AF09A95660F771F881FDAF7880F46
:100710009695879597F9089557FD9058440F551F62
:1007200059F05F3F71F04795880F97FB991F61F073
:100730009F3F79F087950895121613061406551FEA
:10074000F2CF4695F1DF08C0161617061806991F56
:10075000F1CF86957105610508940895E894BB274B
:1007600066277727CB0197F908950E94C8030C9458
:1007700039040E942B0438F00E94320420F09523A3
:1007800011F00C9422040C94280411240C94AF034F
:100790000E948C0370F3959FC1F3950F50E0551F95
:1007A000629FF001729FBB27F00DB11D639FAA27C6
:1007B000F00DB11DAA1F649F6627B00DA11D661F15
:1007C000829F2227B00DA11D621F739FB00DA11D36
:1007D000621F839FA00D611D221F749F3327A00DF0
:1007E000611D231F849F600D211D822F762F6A2F8C
:1007F00011249F5750409AF0F1F088234AF0EE0FF1
:10080000FF1FBB1F661F771F881F91505040A9F71D
:100810009E3F510580F00C9422040C94AF035F3F7F
:10082000E4F3983ED4F3869577956795B795F79559
:10083000E7959F5FC1F7FE2B880F911D96958795D1
:1008400097F9089597F99F6780E870E060E0089550
:100850009FEF80EC089500240A94161617061806D8
:100860000906089500240A941216130614060506B4
:100870000895092E0394000C11F4882352F0BB0F45
:1008800040F4BF2B11F460FF04C06F5F7F4F8F4FA8
:100890009F4F089597FB072E16F4009407D077FD1D
:1008A00009D00E945E0407FC05D03EF49095819526
:1008B0009F4F0895709561957F4F0895AA1BBB1BAC
:1008C00051E107C0AA1FBB1FA617B70710F0A61B50
:1008D000B70B881F991F5A95A9F780959095BC0171
:1008E000CD010895AEE0B0E0E8E7F4E00C94330702
:1008F0000D891E8986E08C831A8309838FEF9FE719
:100900009E838D83AE01475E5F4F6F89788DCE01E8
:1009100001960E949404EF81F885E00FF11F108288
:100920002E96E4E00C944F07ABE0B0E0EAE9F4E087
:100930000C9425076C017B018A01FC011782168249
:10094000838181FFCCC1CE0101963C01F6019381E8
:10095000F70193FD859193FF81917F01882309F42D
:10096000BAC1853239F493FD859193FF81917F015E
:10097000853229F4B60190E00E948B06E7CF912CD6
:10098000212C312CFFE1F315D8F08B3279F038F4BB
:10099000803279F08332A1F4232D20611DC08D3285
:1009A00061F0803369F4232D216016C0832D8260AD
:1009B000382EE32DE4603E2E2AC0F32DF8601DC0D2
:1009C00037FC2DC020ED280F2A3040F08E32B9F4CC
:1009D00036FC81C1232D2064322E19C036FE06C09C
:1009E0008AE0989E200D1124922E11C0EAE02E9EDE
:1009F000200D1124222EF32DF0623F2E08C08C36DC
:100A000021F4832D8068382E02C0883641F4F70126
:100A100093FD859193FF81917F018111B3CF982F31
:100A20009F7D9554933028F40C5F1F4F9FE399836B
:100A30000DC0833631F0833771F0833509F059C02A
:100A400021C0F801808189830E5F1F4F8824839421
:100A5000912C530113C02801F2E04F0E511CF801F4
:100A6000A080B18036FE03C0692D70E002C06FEF38
:100A70007FEFC5010E9480064C018201F32DFF77B4
:100A80003F2E16C0280122E0420E511CF801A08022
:100A9000B18036FE03C0692D70E002C06FEF7FEFBA
:100AA000C5010E9475064C01F32DF0683F2E8201AE
:100AB00033FC1BC0822D90E088169906B0F4B60175
:100AC00080E290E00E948B062A94F4CFF50137FC77
:100AD000859137FE81915F01B60190E00E948B06FF
:100AE00021102A9421E0821A91088114910471F74F
:100AF000E8C0843611F0893641F5F80137FE07C0A9
:100B000060817181828193810C5F1F4F08C0608179
:100B10007181072E000C880B990B0E5F1F4FF32D70
:100B2000FF763F2E97FF09C090958095709561954F
:100B30007F4F8F4F9F4FF0683F2E2AE030E0A30198
:100B40000E94C706882E861845C0853731F4232DAC
:100B50002F7EB22E2AE030E025C0932D997FB92E4A
:100B60008F36C1F018F4883579F0B5C0803719F0A8
:100B7000883721F0B0C0E92FE061BE2EB4FE0DC071
:100B8000FB2DF460BF2E09C034FE0AC0292F266059
:100B9000B22E06C028E030E005C020E130E002C0FF
:100BA00020E132E0F801B7FE07C0608171818281E7
:100BB00093810C5F1F4F06C06081718180E090E0DF
:100BC0000E5F1F4FA3010E94C706882E8618FB2DBB
:100BD000FF773F2E36FE0DC0232D2E7FA22E8914C7
:100BE00058F434FE0BC032FC09C0832D8E7EA82E33
:100BF00005C0B82CA32C03C0B82C01C0B92CA4FE8E
:100C00000FC0FE01E80DF11D8081803321F49A2D83
:100C1000997EA92E09C0A2FE06C0B394B39404C065
:100C20008A2D867809F0B394A3FC11C0A0FE06C0FB
:100C3000B21488F4280C922C9B180EC0B21460F4E5
:100C4000B60180E290E00E948B06B394F7CFB21415
:100C500018F42B1802C0982C212CA4FE10C0B60149
:100C600080E390E00E948B06A2FE17C0A1FC03C0A7
:100C700088E790E002C088E590E0B6010CC08A2DBC
:100C8000867859F0A1FE02C08BE201C080E2A7FC89
:100C90008DE2B60190E00E948B06891438F4B6010B
:100CA00080E390E00E948B069A94F7CF8A94F30138
:100CB000E80DF11D8081B60190E00E948B06811045
:100CC000F5CF222009F442CEB60180E290E00E94E6
:100CD0008B062A94F6CFF6018681978102C08FEFAA
:100CE0009FEF2B96E2E10C944107FC0105906150C7
:100CF00070400110D8F7809590958E0F9F1F089532
:100D0000FC016150704001900110D8F780959095DA
:100D10008E0F9F1F08950F931F93CF93DF93FB01B7
:100D2000238121FD03C08FEF9FEF2CC022FF16C04F
:100D300046815781248135814217530744F4A081AD
:100D4000B1819D012F5F3F4F318320838C9326819A
:100D500037812F5F3F4F3783268314C08B01EC010F
:100D6000FB010084F185E02D0995892BE1F6D8017E
:100D700016968D919C911797019617969C938E933A
:100D80001697CE01DF91CF911F910F910895FA012F
:100D9000AA27283051F1203181F1E8946F936E7FBA
:100DA0006E5F7F4F8F4F9F4FAF4FB1E03ED0B4E0AB
:100DB0003CD0670F781F891F9A1FA11D680F791FEC
:100DC0008A1F911DA11D6A0F711D811D911DA11DFD
:100DD00020D009F468943F912AE0269F112430190D
:100DE000305D3193DEF6CF010895462F4770405DA8
:100DF0004193B3E00FD0C9F7F6CF462F4F70405D57
:100E00004A3318F0495D31FD4052419302D0A9F7B1
:100E1000EACFB4E0A6959795879577956795BA95AB
:100E2000C9F700976105710508959B01AC010A2E71
:100E300006945795479537952795BA95C9F7620F48
:100E4000731F841F951FA01D08952F923F924F92EC
:100E50005F926F927F928F929F92AF92BF92CF924A
:100E6000DF92EF92FF920F931F93CF93DF93CDB753
:100E7000DEB7CA1BDB0B0FB6F894DEBF0FBECDBFCB
:100E800009942A88398848885F846E847D848C849C
:100E90009B84AA84B984C884DF80EE80FD800C81A5
:100EA0001B81AA81B981CE0FD11D0FB6F894DEBF88
:0C0EB0000FBECDBFED010895F894FFCFF8
:040EBC0025640000A9
:00000001FF
